{"abi":[{"type":"constructor","inputs":[{"name":"aavePool","type":"address","internalType":"address"},{"name":"uniV3","type":"address","internalType":"address"},{"name":"v2Router","type":"address","internalType":"address"},{"name":"oneInchRouter","type":"address","internalType":"address"},{"name":"treasury_","type":"address","internalType":"address"},{"name":"priceOracle_","type":"address","internalType":"address"}],"stateMutability":"nonpayable"},{"type":"function","name":"BPS_DENOM","inputs":[],"outputs":[{"name":"","type":"uint16","internalType":"uint16"}],"stateMutability":"view"},{"type":"function","name":"MAX_LOOPS","inputs":[],"outputs":[{"name":"","type":"uint8","internalType":"uint8"}],"stateMutability":"view"},{"type":"function","name":"ONE_INCH_ROUTER","inputs":[],"outputs":[{"name":"","type":"address","internalType":"contract IAggregationRouterV5"}],"stateMutability":"view"},{"type":"function","name":"UNI_V3_ROUTER","inputs":[],"outputs":[{"name":"","type":"address","internalType":"contract ISwapRouterV3"}],"stateMutability":"view"},{"type":"function","name":"V2_ROUTER","inputs":[],"outputs":[{"name":"","type":"address","internalType":"contract IUniswapV2Router02"}],"stateMutability":"view"},{"type":"function","name":"activateEmergency","inputs":[{"name":"reason","type":"string","internalType":"string"}],"outputs":[],"stateMutability":"nonpayable"},{"type":"function","name":"authorizeExecutor","inputs":[{"name":"executor","type":"address","internalType":"address"}],"outputs":[],"stateMutability":"nonpayable"},{"type":"function","name":"authorizedExecutors","inputs":[{"name":"","type":"address","internalType":"address"}],"outputs":[{"name":"","type":"bool","internalType":"bool"}],"stateMutability":"view"},{"type":"function","name":"checkSystemHealth","inputs":[],"outputs":[{"name":"isHealthy","type":"bool","internalType":"bool"},{"name":"status","type":"string","internalType":"string"},{"name":"riskLevel","type":"uint256","internalType":"uint256"}],"stateMutability":"view"},{"type":"function","name":"deactivateEmergency","inputs":[],"outputs":[],"stateMutability":"nonpayable"},{"type":"function","name":"dynamicSlippageThreshold","inputs":[],"outputs":[{"name":"","type":"uint256","internalType":"uint256"}],"stateMutability":"view"},{"type":"function","name":"emergencyMode","inputs":[],"outputs":[{"name":"","type":"bool","internalType":"bool"}],"stateMutability":"view"},{"type":"function","name":"estimateEnhancedArbitrage","inputs":[{"name":"asset","type":"address","internalType":"address"},{"name":"amount","type":"uint256","internalType":"uint256"},{"name":"params","type":"tuple","internalType":"struct BleedingEdgeFlashLoopExecutor.EnhancedArbParams","components":[{"name":"protocol","type":"uint8","internalType":"uint8"},{"name":"route","type":"tuple[]","internalType":"struct BleedingEdgeFlashLoopExecutor.RouteStep[]","components":[{"name":"dexType","type":"uint8","internalType":"enum BleedingEdgeFlashLoopExecutor.DexType"},{"name":"swapData","type":"bytes","internalType":"bytes"},{"name":"minOut","type":"uint256","internalType":"uint256"},{"name":"useDynamicSlippage","type":"bool","internalType":"bool"}]},{"name":"minProfit","type":"uint256","internalType":"uint256"},{"name":"deadline","type":"uint256","internalType":"uint256"},{"name":"maxLoops","type":"uint8","internalType":"uint8"},{"name":"enableDynamicSlippage","type":"bool","internalType":"bool"},{"name":"maxGasPrice","type":"uint256","internalType":"uint256"},{"name":"executionStrategy","type":"string","internalType":"string"}]}],"outputs":[{"name":"estimatedProfit","type":"uint256","internalType":"uint256"},{"name":"estimatedGas","type":"uint256","internalType":"uint256"},{"name":"riskLevel","type":"uint256","internalType":"uint256"},{"name":"recommendation","type":"string","internalType":"string"}],"stateMutability":"view"},{"type":"function","name":"estimateLoopProfit","inputs":[{"name":"principal","type":"uint256","internalType":"uint256"},{"name":"perLoopNum","type":"uint256","internalType":"uint256"},{"name":"perLoopDen","type":"uint256","internalType":"uint256"},{"name":"premiumNum","type":"uint256","internalType":"uint256"},{"name":"premiumDen","type":"uint256","internalType":"uint256"},{"name":"loops","type":"uint8","internalType":"uint8"}],"outputs":[{"name":"gross","type":"uint256","internalType":"uint256"},{"name":"premium","type":"uint256","internalType":"uint256"},{"name":"net","type":"uint256","internalType":"uint256"}],"stateMutability":"pure"},{"type":"function","name":"executeOperation","inputs":[{"name":"asset","type":"address","internalType":"address"},{"name":"amount","type":"uint256","internalType":"uint256"},{"name":"premium","type":"uint256","internalType":"uint256"},{"name":"","type":"address","internalType":"address"},{"name":"params","type":"bytes","internalType":"bytes"}],"outputs":[{"name":"","type":"bool","internalType":"bool"}],"stateMutability":"nonpayable"},{"type":"function","name":"lastEmergencyTimestamp","inputs":[],"outputs":[{"name":"","type":"uint256","internalType":"uint256"}],"stateMutability":"view"},{"type":"function","name":"maxSlippageBps","inputs":[],"outputs":[{"name":"","type":"uint256","internalType":"uint256"}],"stateMutability":"view"},{"type":"function","name":"metrics","inputs":[],"outputs":[{"name":"totalExecutions","type":"uint256","internalType":"uint256"},{"name":"successfulExecutions","type":"uint256","internalType":"uint256"},{"name":"totalGasUsed","type":"uint256","internalType":"uint256"},{"name":"totalProfit","type":"uint256","internalType":"uint256"},{"name":"averageExecutionTime","type":"uint256","internalType":"uint256"},{"name":"lastExecutionTimestamp","type":"uint256","internalType":"uint256"}],"stateMutability":"view"},{"type":"function","name":"minProfitThreshold","inputs":[],"outputs":[{"name":"","type":"uint256","internalType":"uint256"}],"stateMutability":"view"},{"type":"function","name":"onFlashLoan","inputs":[{"name":"initiator","type":"address","internalType":"address"},{"name":"token","type":"address","internalType":"address"},{"name":"amount","type":"uint256","internalType":"uint256"},{"name":"fee","type":"uint256","internalType":"uint256"},{"name":"data","type":"bytes","internalType":"bytes"}],"outputs":[{"name":"","type":"bytes32","internalType":"bytes32"}],"stateMutability":"nonpayable"},{"type":"function","name":"owner","inputs":[],"outputs":[{"name":"","type":"address","internalType":"address"}],"stateMutability":"view"},{"type":"function","name":"pause","inputs":[],"outputs":[],"stateMutability":"nonpayable"},{"type":"function","name":"paused","inputs":[],"outputs":[{"name":"","type":"bool","internalType":"bool"}],"stateMutability":"view"},{"type":"function","name":"priceOracle","inputs":[],"outputs":[{"name":"","type":"address","internalType":"contract IPriceOracle"}],"stateMutability":"view"},{"type":"function","name":"profitSplitBps","inputs":[],"outputs":[{"name":"","type":"uint16","internalType":"uint16"}],"stateMutability":"view"},{"type":"function","name":"protocolConfigs","inputs":[{"name":"","type":"uint8","internalType":"uint8"}],"outputs":[{"name":"pool","type":"address","internalType":"address"},{"name":"maxLoanAmount","type":"uint256","internalType":"uint256"},{"name":"premiumBps","type":"uint256","internalType":"uint256"},{"name":"active","type":"bool","internalType":"bool"}],"stateMutability":"view"},{"type":"function","name":"rescue","inputs":[{"name":"token","type":"address","internalType":"address"},{"name":"amt","type":"uint256","internalType":"uint256"},{"name":"to","type":"address","internalType":"address"}],"outputs":[],"stateMutability":"nonpayable"},{"type":"function","name":"revokeExecutor","inputs":[{"name":"executor","type":"address","internalType":"address"}],"outputs":[],"stateMutability":"nonpayable"},{"type":"function","name":"setMaxSlippage","inputs":[{"name":"bps","type":"uint256","internalType":"uint256"}],"outputs":[],"stateMutability":"nonpayable"},{"type":"function","name":"setMinProfitThreshold","inputs":[{"name":"threshold","type":"uint256","internalType":"uint256"}],"outputs":[],"stateMutability":"nonpayable"},{"type":"function","name":"setSplit","inputs":[{"name":"bps","type":"uint16","internalType":"uint16"}],"outputs":[],"stateMutability":"nonpayable"},{"type":"function","name":"setTreasury","inputs":[{"name":"exodus","type":"address","internalType":"address"}],"outputs":[],"stateMutability":"nonpayable"},{"type":"function","name":"transferOwnership","inputs":[{"name":"newOwner","type":"address","internalType":"address"}],"outputs":[],"stateMutability":"nonpayable"},{"type":"function","name":"treasury","inputs":[],"outputs":[{"name":"","type":"address","internalType":"address"}],"stateMutability":"view"},{"type":"function","name":"triggerEnhancedFlashArb","inputs":[{"name":"asset","type":"address","internalType":"address"},{"name":"amount","type":"uint256","internalType":"uint256"},{"name":"params","type":"tuple","internalType":"struct BleedingEdgeFlashLoopExecutor.EnhancedArbParams","components":[{"name":"protocol","type":"uint8","internalType":"uint8"},{"name":"route","type":"tuple[]","internalType":"struct BleedingEdgeFlashLoopExecutor.RouteStep[]","components":[{"name":"dexType","type":"uint8","internalType":"enum BleedingEdgeFlashLoopExecutor.DexType"},{"name":"swapData","type":"bytes","internalType":"bytes"},{"name":"minOut","type":"uint256","internalType":"uint256"},{"name":"useDynamicSlippage","type":"bool","internalType":"bool"}]},{"name":"minProfit","type":"uint256","internalType":"uint256"},{"name":"deadline","type":"uint256","internalType":"uint256"},{"name":"maxLoops","type":"uint8","internalType":"uint8"},{"name":"enableDynamicSlippage","type":"bool","internalType":"bool"},{"name":"maxGasPrice","type":"uint256","internalType":"uint256"},{"name":"executionStrategy","type":"string","internalType":"string"}]}],"outputs":[],"stateMutability":"nonpayable"},{"type":"function","name":"unpause","inputs":[],"outputs":[],"stateMutability":"nonpayable"},{"type":"event","name":"EmergencyActivated","inputs":[{"name":"by","type":"address","indexed":false,"internalType":"address"},{"name":"reason","type":"string","indexed":false,"internalType":"string"}],"anonymous":false},{"type":"event","name":"EmergencyDeactivated","inputs":[{"name":"by","type":"address","indexed":false,"internalType":"address"}],"anonymous":false},{"type":"event","name":"ExecutorAuthorized","inputs":[{"name":"executor","type":"address","indexed":false,"internalType":"address"}],"anonymous":false},{"type":"event","name":"ExecutorRevoked","inputs":[{"name":"executor","type":"address","indexed":false,"internalType":"address"}],"anonymous":false},{"type":"event","name":"FlashLoanExecuted","inputs":[{"name":"protocol","type":"uint8","indexed":false,"internalType":"uint8"},{"name":"asset","type":"address","indexed":false,"internalType":"address"},{"name":"amount","type":"uint256","indexed":false,"internalType":"uint256"},{"name":"premium","type":"uint256","indexed":false,"internalType":"uint256"}],"anonymous":false},{"type":"event","name":"Paused","inputs":[{"name":"by","type":"address","indexed":false,"internalType":"address"}],"anonymous":false},{"type":"event","name":"PerformanceMetrics","inputs":[{"name":"gasUsed","type":"uint256","indexed":false,"internalType":"uint256"},{"name":"executionTime","type":"uint256","indexed":false,"internalType":"uint256"},{"name":"profitMargin","type":"uint256","indexed":false,"internalType":"uint256"}],"anonymous":false},{"type":"event","name":"Profit","inputs":[{"name":"gross","type":"uint256","indexed":false,"internalType":"uint256"},{"name":"premium","type":"uint256","indexed":false,"internalType":"uint256"},{"name":"net","type":"uint256","indexed":false,"internalType":"uint256"},{"name":"toTreasury","type":"uint256","indexed":false,"internalType":"uint256"},{"name":"toCollateral","type":"uint256","indexed":false,"internalType":"uint256"}],"anonymous":false},{"type":"event","name":"RiskAlert","inputs":[{"name":"alertType","type":"string","indexed":false,"internalType":"string"},{"name":"severity","type":"uint256","indexed":false,"internalType":"uint256"},{"name":"data","type":"bytes","indexed":false,"internalType":"bytes"}],"anonymous":false},{"type":"event","name":"SplitUpdated","inputs":[{"name":"bps","type":"uint16","indexed":false,"internalType":"uint16"}],"anonymous":false},{"type":"event","name":"Swap1InchExecuted","inputs":[{"name":"tokenIn","type":"address","indexed":true,"internalType":"address"},{"name":"tokenOut","type":"address","indexed":true,"internalType":"address"},{"name":"amountIn","type":"uint256","indexed":false,"internalType":"uint256"},{"name":"amountOut","type":"uint256","indexed":false,"internalType":"uint256"}],"anonymous":false},{"type":"event","name":"SwapV2Executed","inputs":[{"name":"tokenIn","type":"address","indexed":true,"internalType":"address"},{"name":"tokenOut","type":"address","indexed":true,"internalType":"address"},{"name":"amountIn","type":"uint256","indexed":false,"internalType":"uint256"},{"name":"amountOut","type":"uint256","indexed":false,"internalType":"uint256"}],"anonymous":false},{"type":"event","name":"SwapV3Executed","inputs":[{"name":"tokenIn","type":"address","indexed":true,"internalType":"address"},{"name":"tokenOut","type":"address","indexed":true,"internalType":"address"},{"name":"amountIn","type":"uint256","indexed":false,"internalType":"uint256"},{"name":"amountOut","type":"uint256","indexed":false,"internalType":"uint256"},{"name":"fee","type":"uint24","indexed":false,"internalType":"uint24"}],"anonymous":false},{"type":"event","name":"TreasuryUpdated","inputs":[{"name":"exodus","type":"address","indexed":false,"internalType":"address"}],"anonymous":false},{"type":"event","name":"Unpaused","inputs":[{"name":"by","type":"address","indexed":false,"internalType":"address"}],"anonymous":false},{"type":"error","name":"EmergencyActive","inputs":[]},{"type":"error","name":"GasPriceTooHigh","inputs":[]},{"type":"error","name":"InvalidProtocol","inputs":[]},{"type":"error","name":"NoProfit","inputs":[]},{"type":"error","name":"OnlyOwner","inputs":[]},{"type":"error","name":"SlippageTooHigh","inputs":[]}],"bytecode":{"object":"0x60e034620001e457601f62002e7838819003918201601f1916830192916001600160401b039182851184861017620001d0578160c09285926040978852833981010312620001e4576200005282620001e8565b906200006160208401620001e8565b926200006f858201620001e8565b906200007e60608201620001e8565b6200009a60a06200009260808501620001e8565b9301620001e8565b61012c600755620f4240600881905560098054600a92909255600480546001600160a01b031990811633179091556001600160b01b03199092166001600160a01b0395861617607d60a51b17905560068054821692851692909217909155958216608090815292821660a052811660c05260015f558551909490929091830190811183821017620001d05760039385918752168252602082015f19815285830191600583526060840195600187525f80526005602052875f209451169084541617835551600183015551600282015501905115159060ff199160ff838354169116179055335f5260036020526001825f209182541617905551612c7a9081620001fe8239608051818181610b7e015261280c015260a051818181610c550152612638015260c05181818161119d015261239c0152f35b634e487b7160e01b5f52604160045260245ffd5b5f80fd5b51906001600160a01b0382168203620001e45756fe60806040526004361015610011575f80fd5b5f3560e01c80630905f560146102545780631b11d0ff1461024f57806323e30c8b1461024a5780632630c12f1461024557806337a2eb7114610240578063389c840e1461023b5780633f4ba83a1461023657806343f68a491461023157806347db186f1461022c5780635c975abb1461022757806361d027b314610222578063643590f91461021d5780636637e38c14610218578063669cbca514610213578063679d86a71461020e5780636bdc970114610209578063733fc03d146102045780637341ab8c146101ff5780637781f71f146101fa5780638456cb59146101f55780638671d23b146101f05780638ada032e146101eb5780638da5cb5b146101e65780639078c09b146101e15780639b2c9f4f146101dc5780639b99ba28146101d7578063a04748f6146101d2578063b3b4facf146101cd578063c0286465146101c8578063c4aa7395146101c3578063ccc52e8e146101be578063d5101251146101b9578063dd3fd925146101b4578063f0f44260146101af578063f2fde38b146101aa5763fa686948146101a5575f80fd5b611282565b61123e565b6111cc565b611188565b611116565b6110f9565b6110dc565b6110ba565b610dbd565b610d76565b610d35565b610d11565b610cac565b610c84565b610c40565b610bfe565b610bad565b610b69565b610b4c565b610a99565b6109fc565b610933565b610877565b61085b565b6107e6565b6107be565b61079c565b6106a1565b610625565b6105d6565b6105b9565b61059e565b610576565b6104ea565b6102ca565b610267565b5f91031261026357565b5f80fd5b34610263575f36600319011261026357602060ff60015460081c166040519015158152f35b6001600160a01b0381160361026357565b9181601f84011215610263578235916001600160401b038311610263576020838186019501011161026357565b346102635760a0366003190112610263576004356102e78161028c565b602435604435916102f960643561028c565b6084356001600160401b0381116102635761031890369060040161029d565b929060025f54146102635760025f908155805260056020526103e193859161038c9161038461037d6103717f05b8ccbb9d4d8fb16ea74ce3c29a41f1b461fbdaff4714a0d9a8eb05499746bc546001600160a01b031690565b6001600160a01b031690565b33146112f0565b810190611572565b9691929790946103a860018060a01b038089169a168a14611648565b6103b86060850151421115611685565b6103d060015460ff81161590816104db575b506116bb565b6103db848289611f14565b5061171e565b6040516370a0823160e01b815230600482015296909590602090889060249082905afa9081156104d657866104669561046d995f94610488575b509061045261044b6104589361044461043c6040610460999a01518661171e565b891015611745565b5a906117a5565b93426117a5565b946117a5565b9283916120a1565b83612155565b339061222c565b60015f556040518061048481906001602083019252565b0390f35b610460945061044b610458939261044461043c60406104c16104529660203d6020116104cf575b6104b98183611388565b81019061172b565b99505050509293505061041b565b503d6104af565b61173a565b60ff915060081c16155f6103ca565b346102635760a03660031901126102635761050660043561028c565b61051160243561028c565b6084356001600160401b0381116102635761053090369060040161029d565b505060405162461bcd60e51b815260206004820152601860248201527713585ad95c911053c81b9bdd081a5b5c1b195b595b9d195960421b6044820152606490fd5b0390fd5b34610263575f366003190112610263576006546040516001600160a01b039091168152602090f35b34610263575f36600319011261026357602060405160088152f35b34610263575f366003190112610263576020600854604051908152f35b34610263575f3660031901126102635760045433036102635760ff19600154166001557f5db9ee0a495bf2e6ff9c91a7834c1ba4fdd244a5e8aa4e537bd38aeae4b073aa6020604051338152a1005b3461026357602036600319011261026357600435600454330361026357612710811161065057600755005b60405162461bcd60e51b81526020600482015260116024820152700e6d8d2e0e0c2ceca40e8dede40d0d2ced607b1b6044820152606490fd5b60ff81160361026357565b359061069f82610689565b565b346102635760c03660031901126102635760043560243560a4356044356106c782610689565b60ff80921690600882116107665792919084935f935b82848616106107455786866107096107026084356106fd606435866117c8565b6117db565b809361171e565b8082111561073b5761071e61048491836117a5565b604051938493846040919493926060820195825260208201520152565b506104845f61071e565b909192600161075a846106fd8585999a6117c8565b960116939291906106dd565b60405162461bcd60e51b815260206004820152600e60248201526d746f6f206d616e79206c6f6f707360901b6044820152606490fd5b34610263575f36600319011261026357602060ff600154166040519015158152f35b34610263575f366003190112610263576009546040516001600160a01b039091168152602090f35b34610263576020366003190112610263576004356108038161028c565b6004543303610263576001600160a01b03165f81815260036020908152604091829020805460ff1916600117905590519182527f52762435f58790076157ea2a4914a5a4d0aa0eb421588891377692f7fd3bc08291a1005b34610263575f3660031901126102635760206040516127108152f35b34610263576020366003190112610263576004356001600160401b038111610263576108c87f63eb0f7af53ae164e5c99d224c844a1b380ec4b814a159b85f56312c9257ec6b91369060040161029d565b6004546001600160a01b03163314801561091b575b6108e6906117f9565b61010061ff0019600154161760015542600255610916604051928392338452604060208501526040840191611836565b0390a1005b50335f9081526003602052604090205460ff166108dd565b34610263576020366003190112610263576004356109508161028c565b60018060a01b03165f526003602052602060ff60405f2054166040519015158152f35b600319916060828401126102635760043561098d8161028c565b9260243592604435916001600160401b0383116102635782610100920301126102635760040190565b5f5b8381106109c75750505f910152565b81810151838201526020016109b8565b906020916109f0815180928185528580860191016109b6565b601f01601f1916010190565b3461026357610a0a36610973565b50505060405160608101908082106001600160401b03831117610a945761048491604052602981527f50726f6365656420776974682063617574696f6e202d206d6f6e69746f72206760208201526861732070726963657360b81b60408201526040519182915f835262030d406020840152601960408401526080606084015260808301906109d7565b61132b565b346102635760203660031901126102635760043561ffff81168082036102635760045433036102635761271010610b1c576009805461ffff60a01b191660a083901b61ffff60a01b1617905560405161ffff90911681527f96bcd82a7097a1ecf42e848d65159d42bbe6abd8e499e0eeb8d21b795ab2b36e908060208101610916565b60405162461bcd60e51b81526020600482015260086024820152676270733e3130302560c01b6044820152606490fd5b34610263575f366003190112610263576020600a54604051908152f35b34610263575f366003190112610263576040517f00000000000000000000000000000000000000000000000000000000000000006001600160a01b03168152602090f35b34610263575f36600319011261026357600454330361026357600160ff19815416176001557f62e78cea01bee320cd4e420270b5ea74000d11b0c9f74754ebdbfc544b05a2586020604051338152a1005b3461026357606036600319011261026357600435610c1b8161028c565b60443590610c288261028c565b600454330361026357610c3e916024359161222c565b005b34610263575f366003190112610263576040517f00000000000000000000000000000000000000000000000000000000000000006001600160a01b03168152602090f35b34610263575f366003190112610263576004546040516001600160a01b039091168152602090f35b346102635760203660031901126102635760ff600435610ccb81610689565b165f526005602052608060405f2060018060a01b038154169060018101549060ff6003600283015492015416916040519384526020840152604083015215156060820152f35b34610263575f36600319011261026357602061ffff60095460a01c16604051908152f35b34610263575f36600319011261026357610d4d6118d5565b60405192151583526060602084018190528392610d6c918401906109d7565b9060408301520390f35b34610263575f3660031901126102635760c0600b54600c54600d54600e54600f549160105493604051958652602086015260408501526060840152608083015260a0820152f35b3461026357610dcb36610973565b919060018060a01b0360045416331480156110a2575b610dea906117f9565b610e93600154610e1460ff82818094161580611094575b610e0a906116bb565b60081c161561197a565b610e2b600282610e23886119b9565b1611156119c3565b610e576001610e4d610e3c886119b9565b60ff165f52600560205260405f2090565b0154841115611a02565b610e70610e676020870187611a41565b90501515611a76565b60c085013580611082575b50610ea15a6040519384914290898960208601611c16565b03601f198101845283611388565b610eb5610eb0610e3c876119b9565b611cf0565b90610ecb610ec66060840151151590565b611d30565b80610ed5876119b9565b16610fa8575051610ef090610371906001600160a01b031681565b803b15610263576040516310ac2ddf60e21b8152915f918391829084908290610f1f90898b3060048601611d70565b03925af180156104d6577f851e19f3a8e8f905930f557717071b470b2bec91338f57db514e089eef5c74819461091692610f5e92610f8f575b506119b9565b6040805160ff90921682526001600160a01b039094166020820152928301919091525f606083015281906080820190565b80610f9c610fa29261133f565b80610259565b5f610f58565b80925060019150610fb8866119b9565b16036110035760405162461bcd60e51b815260206004820152601860248201527f436f6d706f756e64206e6f7420696d706c656d656e74656400000000000000006044820152606490fd5b60029061100f856119b9565b161461104257610916610f5e7f851e19f3a8e8f905930f557717071b470b2bec91338f57db514e089eef5c7481946119b9565b60405162461bcd60e51b815260206004820152601860248201527713585ad95c911053c81b9bdd081a5b5c1b195b595b9d195960421b6044820152606490fd5b61108e903a1115611ab7565b5f610e7b565b50600881901c821615610e01565b50335f9081526003602052604090205460ff16610de1565b3461026357602036600319011261026357600454330361026357600435600a55005b34610263575f366003190112610263576020600754604051908152f35b34610263575f366003190112610263576020600254604051908152f35b34610263576020366003190112610263576004356111338161028c565b6004543303610263576001600160a01b03165f81815260036020908152604091829020805460ff1916905590519182527f02dc911aaa0e4aefb4e1898cc626902c4d63f9304bb8cc1fd10c1bf23a1a7d6a91a1005b34610263575f366003190112610263576040517f00000000000000000000000000000000000000000000000000000000000000006001600160a01b03168152602090f35b34610263576020366003190112610263576004356111e98161028c565b600454330361026357600980546001600160a01b0319166001600160a01b0390921691821790556040519081527f7dae230f18360d76a040c81f050aa14eb9d6dc7901b20fc5d855e2a20fe814d190602090a1005b346102635760203660031901126102635760043561125b8161028c565b60045490813303610263576001600160a01b03166001600160a01b03199190911617600455005b34610263575f3660031901126102635760045433036102635761ff0019600154166001557f58c23c36c22817a3e5aea11ee4ed5a1815c9770b63d1c162bbfc7a44668818956020604051338152a1005b600311156112dc57565b634e487b7160e01b5f52602160045260245ffd5b156112f757565b60405162461bcd60e51b815260206004820152600c60248201526b1d5b985d5d1a1bdc9a5e995960a21b6044820152606490fd5b634e487b7160e01b5f52604160045260245ffd5b6001600160401b038111610a9457604052565b608081019081106001600160401b03821117610a9457604052565b604081019081106001600160401b03821117610a9457604052565b90601f801991011681019081106001600160401b03821117610a9457604052565b6040519061010082018281106001600160401b03821117610a9457604052565b6040519060e082018281106001600160401b03821117610a9457604052565b6001600160401b038111610a945760051b60200190565b3590600382101561026357565b6001600160401b038111610a9457601f01601f191660200190565b9291926114338261140c565b916114416040519384611388565b829481845281830111610263578281602093845f960137010152565b3590811515820361026357565b9080601f8301121561026357813591602091611485846113e8565b936040926114966040519687611388565b818652848087019260051b8201019383851161026357858201925b8584106114c2575050505050505090565b6001600160401b0384358181116102635784019160809182601f19858a030112610263578451906114f282611352565b6114fd8b86016113ff565b8252858501359081116102635784019388603f86011215610263576115458b95946115308b878a8a809a01359101611427565b8685015260609283810135898601520161145d565b908201528152019301926114b1565b9080601f830112156102635781602061156f93359101611427565b90565b91909160808184031261026357803561158a8161028c565b926001600160401b039060208301358281116102635783019061010082820312610263576115b66113a9565b926115c083610694565b8452602083013581811161026357826115da91850161146a565b602085015260408301356040850152606083013560608501526115ff60808401610694565b608085015261161060a0840161145d565b60a085015260c083013560c085015260e0830135908111610263576116359201611554565b60e0820152916060604083013592013590565b1561164f57565b60405162461bcd60e51b815260206004820152600e60248201526d0c2e6e6cae840dad2e6dac2e8c6d60931b6044820152606490fd5b1561168c57565b60405162461bcd60e51b8152602060048201526007602482015266195e1c1a5c995960ca1b6044820152606490fd5b156116c257565b60405162461bcd60e51b815260206004820152600d60248201526c1cde5cdd195b481c185d5cd959609a1b6044820152606490fd5b634e487b7160e01b5f52601160045260245ffd5b90603c820180921161171957565b6116f7565b9190820180921161171957565b90816020910312610263575190565b6040513d5f823e3d90fd5b1561174c57565b60405162461bcd60e51b81526020600482015260136024820152721a5b9cdd59999a58da595b9d081c1c9bd99a5d606a1b6044820152606490fd5b5f1981019190821161171957565b9061271091820391821161171957565b9190820391821161171957565b9060648202918083046064149015171561171957565b8181029291811591840414171561171957565b81156117e5570490565b634e487b7160e01b5f52601260045260245ffd5b1561180057565b60405162461bcd60e51b815260206004820152600e60248201526d1b9bdd08185d5d1a1bdc9a5e995960921b6044820152606490fd5b908060209392818452848401375f828201840152601f01601f1916010190565b604051906118638261136d565b600d82526c14de5cdd195b481c185d5cd959609a1b6020830152565b6040519061188c8261136d565b601082526f4c6f772073756363657373207261746560801b6020830152565b604051906118b88261136d565b600e82526d53797374656d206865616c74687960901b6020830152565b60015460ff8160081c166119435760ff1661193357600b548015611929576119046050916106fd600c546117b2565b10611919576001906119146118ab565b905f90565b5f9061192361187f565b90604b90565b5060506064611904565b5f9061193d611856565b90603290565b505f906040516119528161136d565b6015815274456d657267656e6379206d6f64652061637469766560581b602082015290606490565b1561198157565b60405162461bcd60e51b815260206004820152601060248201526f656d657267656e63792061637469766560801b6044820152606490fd5b3561156f81610689565b156119ca57565b60405162461bcd60e51b815260206004820152601060248201526f1a5b9d985b1a59081c1c9bdd1bd8dbdb60821b6044820152606490fd5b15611a0957565b60405162461bcd60e51b815260206004820152601060248201526f616d6f756e7420746f6f206c6172676560801b6044820152606490fd5b903590601e198136030182121561026357018035906001600160401b03821161026357602001918160051b3603831361026357565b15611a7d57565b60405162461bcd60e51b81526020600482015260126024820152711b9bc81c9bdd5d19481cdc1958da599a595960721b6044820152606490fd5b15611abe57565b60405162461bcd60e51b81526020600482015260126024820152710cec2e640e0e4d2c6ca40e8dede40d0d2ced60731b6044820152606490fd5b9035601e19823603018112156102635701602081359101916001600160401b038211610263578160051b3603831361026357565b9035601e19823603018112156102635701602081359101916001600160401b03821161026357813603831361026357565b9190918192808352602080930192808260051b8601019483945f915b848310611b8a575050505050505090565b90919293949596601f19828203018352873590607e198836030182121561026357858091896001940190611be86080611bc2846113ff565b611bcb816112d2565b8352611bd985850185611b2c565b90918087860152840191611836565b9160408082013590830152611c00606080920161145d565b1515910152990193019301919594939290611b79565b6001600160a01b0390911681526080602082015291939291606091611ce690611c7c90611cd390611c558135611c4b81610689565b60ff166080870152565b611ca5611c656020830183611af8565b9490610100958660a08a0152610180890191611b5d565b93604083013560c08801528783013560e0880152611c9c60808401610694565b60ff1690870152565b611cbe611cb460a0830161145d565b1515610120870152565b60c081013561014086015260e0810190611b2c565b848303607f190161016086015290611836565b9460408201520152565b90604051611cfd81611352565b82546001600160a01b03168152600183015460208201526002830154604082015260039092015460ff1615156060830152565b15611d3757565b60405162461bcd60e51b815260206004820152601160248201527070726f746f636f6c20696e61637469766560781b6044820152606490fd5b94935f93611da39260809460018060a01b038092168952166020880152604087015260a0606087015260a08601906109d7565b930152565b634e487b7160e01b5f52603260045260245ffd5b805115611dc95760200190565b611da8565b8051821015611dc95760209160051b010190565b9091606082840312610263578151611df98161028c565b926020830151926040810151906001600160401b038211610263570181601f82011215610263578051611e2b8161140c565b92611e396040519485611388565b818452602082840101116102635761156f91602080850191016109b6565b91906040838203126102635782516001600160401b03811161026357830181601f8201121561026357805191602092611e8f816113e8565b92611e9d6040519485611388565b818452848085019260051b8201019283116102635784809101915b838310611ec9575050505092015190565b81908351611ed68161028c565b8152019101908490611eb8565b90816060910312610263578051611ef98161028c565b91602082015162ffffff811681036102635760409092015190565b909291835f925b6020908184015180518610156120735785611f3591611dce565b518051611f41816112d2565b611f4a816112d2565b611f945790611f6a83600194611f8a940151908082518301019101611ee3565b91858060a09893981b03169586611f8460a08a0151151590565b946127ed565b91935b0192611f1b565b9060018251611fa2816112d2565b611fab816112d2565b036120075750611ff4611fe3611fd284600195612001950151908082518301019101611e57565b60a088015191969115159187612606565b93611fee8151611787565b90611dce565b516001600160a01b031690565b93611f8d565b94919060028151612017816112d2565b612020816112d2565b14612030575b5050600190611f8d565b9461204d8261206a93600195980151908082518301019101611de2565b91858060a01b0316958661206460a08a0151151590565b9461237c565b9193905f612026565b50505092939150508082115f1461208d5761156f916117a5565b50505f90565b5f1981146117195760010190565b6120ac600b54612093565b80600b556120bb600c54612093565b600c55600d5482810180911161171957600d55600e5484810180911161171957600e55426010556120f7600f546120f183611787565b906117c8565b9383850180951161171957612130612150927f83ae23c277c9d98128495ce0595898e5576b9a4e662ef370c7accf8d4359e628966117db565b600f55604051938493846040919493926060820195825260208201520152565b0390a1565b919091821561221a576009549261271061217661ffff8660a01c16836117c8565b04938482039282841161171957859081151580612208575b6121ed575b505050828101918282116117195760408051938452602084019490945292820152606081019290925260808201527f58874782a7fb65dd7513466ad99aee64fdb1cae0bc34d52dc912739377a714d9908060a08101612150565b612200926001600160a01b03169061222c565b5f8481612193565b506001600160a01b038316151561218e565b6040516371cd57f760e11b8152600490fd5b60405163a9059cbb60e01b60208201526001600160a01b0390921660248301526044808301939093529181526122a2919061226681611352565b604051916122738361136d565b601a83527f5361666545524332303a207472616e73666572206661696c656400000000000060208401526129a3565b50565b9190826040910312610263576020825192015190565b9161156f939160c0612330926101409260018060a01b0380911687528082511660208801528060208301511660408801528060408301511660608801526060820151166080870152608081015160a087015260a081015182870152015160e08501528061010085015283016020905f81520190565b916101208184039101526109d7565b1561234657565b60405162461bcd60e51b815260206004820152600e60248201526d31696e636820736c69707061676560901b6044820152606490fd5b939192959483156124de576124c4575b61242e916001600160a01b0391907f00000000000000000000000000000000000000000000000000000000000000008316906123c88288612be7565b6123d06113c9565b6001600160a01b0388168152906001600160a01b0384166020830152306040838101919091529283923060608201528860808201528b60a08201525f60c08201525f84518099819582946312aa3caf60e01b845230600485016122bb565b03925af180156104d6578361248f927f71ae9762cca4523b2c72ea745f43cd1421cfaa7809460b597b95bd8d2d2837e9965f93612494575b50612474839b84101561233f565b51948594169716958360209093929193604081019481520152565b0390a3565b816124b59294503d85116124bd575b6124ad8183611388565b8101906122a5565b50915f612466565b503d6124a3565b94906124d561242e92848887612a46565b9590915061238c565b505f955050505050565b6020908181840312610263578051906001600160401b03821161026357019180601f8401121561026357825161251d816113e8565b9361252b6040519586611388565b818552838086019260051b820101928311610263578301905b828210612552575050505090565b81518152908301908301612544565b9291909594939560a08401908452602091602085015260a060408501528251809152602060c085019301915f5b8281106125af5750505050906080919460018060a01b031660608201520152565b83516001600160a01b03168552938101939281019260010161258e565b156125d357565b60405162461bcd60e51b815260206004820152600b60248201526a563220736c69707061676560a81b6044820152606490fd5b91939282511580156127ab575b6127a35761276f575b612628611ff483611dbc565b905f60018060a01b039161265f837f0000000000000000000000000000000000000000000000000000000000000000168095612be7565b6126684261170b565b9385838961268e604051988996879586946338ed173960e01b8652309260048701612561565b03925af19182156104d6575f92612729575b507fec8961072be6a0f721b2602ad2fed169a35a2776ed85604f051be8052c275933906126e36126d96126d38551611787565b85611dce565b51968710156125cc565b612709612703611ff46126f8611ff488611dbc565b96611fee8151611787565b93611dbc565b51604080519182526020820188905293821694909116928190810161248f565b7fec8961072be6a0f721b2602ad2fed169a35a2776ed85604f051be8052c275933919250612768903d805f833e6127608183611388565b8101906124e8565b91906126a0565b9261279d9084612781611ff485611dbc565b612797611ff46127918751611787565b87611dce565b90612a46565b9261261c565b505f93505050565b508115612613565b156127ba57565b60405162461bcd60e51b815260206004820152600b60248201526a563320736c69707061676560a81b6044820152606490fd5b93959483156124de57612990575b6001600160a01b03905f60206129027f00000000000000000000000000000000000000000000000000000000000000008516612837818a612be7565b6128404261170b565b6128486113a9565b6001600160a01b038b168152906001600160a01b0387168286015262ffffff891660408301523060608301526080820190815260a082018a815260c083018e815260e084018881526040805163414bf38960e01b815286516001600160a01b0390811660048301526020880151811660248301529187015162ffffff1660448201526060909601518116606487015293516084860152915160a48501525160c4840152511660e48201529384928391908290610104820190565b03925af19384156104d6577f89e445f2113e383dfe8dfceeff28efbd8be0f05f2a2686d4a9765fdb99c3b3059461248f925f91612971575b50612948819a8210156127b3565b84604051958695169816968491604091949362ffffff9160608501968552602085015216910152565b61298a915060203d6020116104cf576104b98183611388565b5f61293a565b9461299d90838786612a46565b946127fb565b5f91829182602083519301915af1913d15612a18573d926129c38461140c565b936129d16040519586611388565b84523d5f602086013e5b612a1457508151156129f05750805190602001fd5b60405162461bcd60e51b8152602060048201529081906105729060248301906109d7565b9050565b6060926129db565b90816020910312610263575161156f81610689565b60ff16604d811161171957600a0a90565b600654919390929091612a61906001600160a01b0316610371565b604051630226614760e01b8082526001600160a01b0386166004830152602096909391908782602481875afa9384156104d65788925f95612bc4575b506040519586526001600160a01b0390911660048601529293919282908180602481015b03915afa9081156104d6575f91612ba7575b508215908115612b9e575b50612b9657612af060049286926117c8565b60405163313ce56760e01b815290949092839182906001600160a01b03165afa9283156104d657612b34612b5694612b3a9361156f975f92612b69575b5050612a35565b906117db565b60085411612b5e576120f1612b5160075460011c90565b611795565b612710900490565b6120f1600754611795565b612b889250803d10612b8f575b612b808183611388565b810190612a20565b5f80612b2d565b503d612b76565b505091505090565b9050155f612ade565b612bbe9150863d88116104cf576104b98183611388565b5f612ad3565b612ac1949550612be090843d86116104cf576104b98183611388565b9493612a9d565b63dd62ed3e5f52306004528160245260205f604481845afa612c07575050565b5f516001600160ff1b0311612c1a575050565b60445f80809360209563095ea7b38352600452816024528582858180855af15081196024525af15056fea264697066735822122029da9d3bb2ed6a2f62ec2b201430afb00e831b8db2b5786f710da21b831cfbdd64736f6c63430008180033","linkReferences":{}},"methodIdentifiers":{"BPS_DENOM()":"6637e38c","MAX_LOOPS()":"37a2eb71","ONE_INCH_ROUTER()":"dd3fd925","UNI_V3_ROUTER()":"7781f71f","V2_ROUTER()":"8ada032e","activateEmergency(string)":"669cbca5","authorizeExecutor(address)":"643590f9","authorizedExecutors(address)":"679d86a7","checkSystemHealth()":"9b99ba28","deactivateEmergency()":"fa686948","dynamicSlippageThreshold()":"389c840e","emergencyMode()":"0905f560","estimateEnhancedArbitrage(address,uint256,(uint8,(uint8,bytes,uint256,bool)[],uint256,uint256,uint8,bool,uint256,string))":"6bdc9701","estimateLoopProfit(uint256,uint256,uint256,uint256,uint256,uint8)":"47db186f","executeOperation(address,uint256,uint256,address,bytes)":"1b11d0ff","lastEmergencyTimestamp()":"ccc52e8e","maxSlippageBps()":"c4aa7395","metrics()":"a04748f6","minProfitThreshold()":"7341ab8c","onFlashLoan(address,address,uint256,uint256,bytes)":"23e30c8b","owner()":"8da5cb5b","pause()":"8456cb59","paused()":"5c975abb","priceOracle()":"2630c12f","profitSplitBps()":"9b2c9f4f","protocolConfigs(uint8)":"9078c09b","rescue(address,uint256,address)":"8671d23b","revokeExecutor(address)":"d5101251","setMaxSlippage(uint256)":"43f68a49","setMinProfitThreshold(uint256)":"c0286465","setSplit(uint16)":"733fc03d","setTreasury(address)":"f0f44260","transferOwnership(address)":"f2fde38b","treasury()":"61d027b3","triggerEnhancedFlashArb(address,uint256,(uint8,(uint8,bytes,uint256,bool)[],uint256,uint256,uint8,bool,uint256,string))":"b3b4facf","unpause()":"3f4ba83a"},"id":0}